:100000000C942A000C943F000C943F000C943F0089
:100010000C943F000C943F000C943F000C943F0064
:100020000C943F000C943F000C943F000C943F0054
:100030000C943F000C943F000C943F000C943F0044
:100040000C943F000C943F000C943F000C943F0034
:100050000C943F0011241FBECFE5D8E0DEBFCDBF1A
:1000600010E0A0E6B0E0EAE0F8E002C005900D92F2
:10007000AC37B107D9F70E9488010C9403040C94A3
:1000800000001FBC1DBC1CBC88B7806288BF0895DF
:1000900081E48EBD08B605FEFDCF26B537B598B70D
:1000A000906298BFC901089581E08EBD08B605FE33
:1000B000FDCF26B537B598B7906298BFC9010895AE
:1000C0001EBC0895613029F4E82FF0E08FEF8183A2
:1000D0000895E82FF0E011820895413069F4E82F87
:1000E000F0E0218181E090E002C0880F991F6A95BD
:1000F000E2F7822B81830895E82FF0E0218181E0EF
:1001000090E002C0880F991F6A95E2F780958223DC
:1001100081830895E82FF0E0828121E030E002C081
:10012000220F331F6A95E2F7282B22830895E82FC8
:10013000F0E0828121E030E002C0220F331F6A9597
:10014000E2F72095282322830895E82FF0E06283C8
:100150000895CF93C82F60E089E30E9497006C2F29
:10016000607F83E30E94A50061E089E30E948A002A
:1001700082E08A95F1F700C061E089E30E94970070
:1001800087EC90E00197F1F700C000006C2F6295BA
:10019000607F83E30E94A50061E089E30E948A00FA
:1001A00092E09A95F1F700C061E089E30E94970020
:1001B00087EC90E00197F1F700C00000CF9108951F
:1001C00061E083E30E94620041E060E089E30E9415
:1001D0006D0041E061E089E30E946D0060E083E32F
:1001E0000E94A50061E089E30E9497008FE99FE0EB
:1001F0000197F1F700C0000083E30E94A90082E3A9
:100200000E94A90088E20E94A9008EE00E94A90035
:1002100081E00E94A9008FE99FE00197F1F700C0FB
:10022000000086E00E94A9000895CF93C82F60E0E7
:1002300089E30E948A006C2F607F83E30E94A500FF
:1002400061E089E30E948A0082E08A95F1F700C0AC
:1002500061E089E30E94970087EC90E00197F1F755
:1002600000C000006C2F6295607F83E30E94A500B0
:1002700061E089E30E948A0092E09A95F1F700C05C
:1002800061E089E30E94970087EC90E00197F1F725
:1002900000C00000CF9108950F931F93CF938C015E
:1002A000C0E003C00E941501CF5FF801EC0FF11D03
:1002B00080818111F7CFCF911F910F910895CF9336
:1002C000DF93EA01811108C0603130F4862F8F700E
:1002D00080680E94A90009C0813039F4603128F497
:1002E000862F8F70806C0E94A900CE010E944C0165
:1002F000DF91CF91089581E00E94A9008FE99FE0EE
:100300000197F1F700C0000080E80E94A90008955D
:10031000CF93DF93CDB7DEB7A6970FB6F894DEBFC5
:100320000FBECDBF0E94E0000E9441000E94480025
:100330008C010E9454001C010E9448005C010E9434
:1003400060000E947B016501C01AD10AE12CF12CEA
:1003500060E072E18AE790E0A70196010E94AC0399
:100360002BA33CA34DA35EA3B101601B710B80E0E6
:1003700090E00E94B1022B013C01C701B6010E942E
:10038000B1029B01AC01C301B2010E94090220E04D
:1003900030E048EC52E40E943F036B017C014AE0EC
:1003A000BE016F5F7F4F8BA19CA10E94CE03C7014E
:1003B000B6010E947B02DC01CB014AE0BE01695E0E
:1003C0007F4F0E94CE0340E650E060E080E00E9454
:1003D0005F01CE0101960E944C0187E690E00E94E9
:1003E0004C014BE650E060E081E00E945F01CE01ED
:1003F00047960E944C0188E790E00E944C012FEF45
:1004000084E39CE0215080409040E1F700C0000070
:1004100098CF0E941D020C9405030E94FE0258F022
:100420000E94F70240F029F45F3F29F00C94EE029D
:1004300051110C9439030C94F4020E94160368F3D2
:100440009923B1F3552391F3951B550BBB27AA278D
:1004500062177307840738F09F5F5F4F220F331FC7
:10046000441FAA1FA9F335D00E2E3AF0E0E832D08F
:1004700091505040E695001CCAF72BD0FE2F29D092
:10048000660F771F881FBB1F261737074807AB0764
:10049000B0E809F0BB0B802DBF01FF2793585F4FD9
:1004A0003AF09E3F510578F00C94EE020C9439031B
:1004B0005F3FE4F3983ED4F3869577956795B795BB
:1004C000F7959F5FC9F7880F911D9695879597F9C6
:1004D0000895E1E0660F771F881FBB1F621773073F
:1004E0008407BA0720F0621B730B840BBA0BEE1F54
:1004F00088F7E09508950E9482026894B1110C94E7
:10050000390308950E941E0388F09F5798F0B92F71
:100510009927B751B0F0E1F0660F771F881F991F38
:100520001AF0BA95C9F714C0B13091F00E9438039F
:10053000B1E008950C943803672F782F8827B85FAF
:1005400039F0B93FCCF3869577956795B395D9F790
:100550003EF490958095709561957F4F8F4F9F4F9A
:100560000895E89409C097FB3EF4909580957095A6
:1005700061957F4F8F4F9F4F9923A9F0F92F96E9EF
:10058000BB279395F695879577956795B795F11164
:10059000F8CFFAF4BB0F11F460FF1BC06F5F7F4F01
:1005A0008F4F9F4F16C0882311F096E911C0772313
:1005B00021F09EE8872F762F05C0662371F096E81C
:1005C000862F70E060E02AF09A95660F771F881FEB
:1005D000DAF7880F9695879597F9089597F99F67A9
:1005E00080E870E060E008959FEF80EC08950024BB
:1005F0000A941616170618060906089500240A9488
:1006000012161306140605060895092E0394000C0D
:1006100011F4882352F0BB0F40F4BF2B11F460FF9C
:1006200004C06F5F7F4F8F4F9F4F089557FD9058C5
:10063000440F551F59F05F3F71F04795880F97FBA6
:10064000991F61F09F3F79F0879508951216130660
:100650001406551FF2CF4695F1DF08C0161617068F
:100660001806991FF1CF86957105610508940895C4
:10067000E894BB2766277727CB0197F908950E9456
:1006800052030C9405030E94F70238F00E94FE0208
:1006900020F0952311F00C94EE020C94F402112436
:1006A0000C9439030E94160370F3959FC1F3950FC4
:1006B00050E0551F629FF001729FBB27F00DB11DE6
:1006C000639FAA27F00DB11DAA1F649F6627B00D76
:1006D000A11D661F829F2227B00DA11D621F739F5F
:1006E000B00DA11D621F839FA00D611D221F749F6D
:1006F0003327A00D611D231F849F600D211D822FB4
:10070000762F6A2F11249F5750409AF0F1F08823DA
:100710004AF0EE0FFF1FBB1F661F771F881F915007
:100720005040A9F79E3F510580F00C94EE020C94C6
:1007300039035F3FE4F3983ED4F386957795679548
:10074000B795F795E7959F5FC1F7FE2B880F911D31
:100750009695879597F90895A1E21A2EAA1BBB1BBF
:10076000FD010DC0AA1FBB1FEE1FFF1FA217B3077D
:10077000E407F50720F0A21BB30BE40BF50B661F93
:10078000771F881F991F1A9469F760957095809557
:1007900090959B01AC01BD01CF010895BB274A3064
:1007A00031F4992322F4BDE2909581959F4F0C94EA
:1007B000DA03BB27FB015527AA27880F991FAA1F19
:1007C000A41710F0A41B83955051B9F7A05DAA336C
:1007D00008F0A95DA193009779F7B111B193119237
:1007E000CB010C94F303DC01FC01672F719177239B
:1007F000E1F7329704C07C916D9370836291AE17DC
:0A080000BF07C8F30895F894FFCF76
:10080A00467265713A200020487A0044757479204E
:0C081A00526174696F3A20002025000034
:00000001FF
